:0400000098EF0EF077
:0B0600000025632563256325630000CF
:10060C00D3EC10F0000E026E050E016ED9EC0EF05C
:10061C006DEC10F0000E026E050E016ED9EC0EF0B2
:10062C00B6EC10F0010E026EF40E016E06EC0FF03B
:10063C0040C001F0000E81EC0FF041C001F0010E42
:10064C0081EC0FF042C001F0020E81EC0FF043C0C0
:10065C0001F0030E81EC0FF0000E08EC10F0406E70
:10066C00010E08EC10F0416E020E08EC10F0426E18
:10067C00030E08EC10F0436E818E818C818A818888
:10068C00040E08EC10F0386E050E08EC10F0396E04
:10069C00060E08EC10F03A6E070E08EC10F03B6EEC
:1006AC00000E506E000E4F6E65EF03F04F50D50FDD
:1006BC00D96EDA6ADF50C7EC0FF04F4A502A4F5010
:1006CC00D50FD96EDA6ADF50D8A46FEF03F071EF53
:1006DC0003F05CEF03F0000E026EC80E016E06EC28
:1006EC000FF0C00EA5EC0FF0000E506E000E4F6E0A
:1006FC0089EF03F04F50E20FD96EDA6ADF50C7EC86
:10070C000FF04F4A502A4F50E20FD96EDA6ADF5081
:10071C00D8A493EF03F095EF03F080EF03F0000EF5
:10072C00026EC80E016E06EC0FF0000E506E000E3D
:10073C004F6EAAEF03F04F50310FD96EDA6ADF50CB
:10074C00C7EC0FF04F4A502A4F50310FD96EDA6A6E
:10075C00DF50D8A4B4EF03F0B6EF03F0A1EF03F031
:10076C00000E506E000E4F6E50BEC5EF03F0505091
:10077C0008E14F04D8A0C5EF03F0C7EF03F0C9EFB1
:10078C0003F064EF05F0819681948192819081A8A9
:10079C00D2EF03F0D4EF03F0E9EF03F081AAD9EF25
:1007AC0003F0DBEF03F0E9EF03F081ACE0EF03F0D3
:1007BC00E2EF03F0E9EF03F081BEE7EF03F0E9EFBE
:1007CC0003F0CDEF03F081B8EEEF03F0F0EF03F0A0
:1007DC00F2EF03F06CEC0AF081BAF7EF03F0F9EFEB
:1007EC0003F0FBEF03F001EC0AF081BC00EF04F026
:1007FC0002EF04F004EF04F096EC09F04F4A502A93
:10080C00BAEF03F0B6EC10F0550E116E010E126E2D
:10081C0040C013F0146A41C015F0166A42C017F0BC
:10082C00186A43C019F01A6A25EC10F0550E0E6EBA
:10083C0000EC08F00E500F10D8B427EF04F029EF9D
:10084C0004F0F1EF04F0B6EC10F0590E116E010E3D
:10085C00126E38C013F0146A39C015F0166A3AC01B
:10086C0017F0186A3BC019F01A6A25EC10F076ECF8
:10087C0007F00E500F10D8B446EF04F048EF04F018
:10088C00D2EF04F0B6EC10F0000E506E000E4F6E6E
:10089C005BEF04F0310E4F24D96E010E5020DA6E4E
:1008AC00DF50C7EC0FF04F4A502A310E4F24D96E4F
:1008BC00010E5020DA6EDF50D8A467EF04F069EF18
:1008CC0004F050EF04F0000E026EC80E016E06EC40
:1008DC000FF0B6EC10F0E7EC06F0040E08EC10F09C
:1008EC00386E050E08EC10F0396E060E08EC10F0A0
:1008FC003A6E070E08EC10F03B6EB6EC10F0000EE2
:10090C00506E000E4F6E94EF04F04F50C80FD96E1E
:10091C00DA6ADF50C7EC0FF04F4A502A4F50C80F1D
:10092C00D96EDA6ADF50D8A49EEF04F0A0EF04F081
:10093C008BEF04F0000E026EC80E016E06EC0FF089
:10094C00C00EA5EC0FF0000E506E000E4F6EBAEFFD
:10095C0004F0200E4F24D96E010E5020DA6EDF50B9
:10096C00C7EC0FF04F4A502A200E4F24D96E010EBF
:10097C005020DA6EDF50D8A4C6EF04F0C8EF04F0B4
:10098C00AFEF04F0000E026EC80E016E06EC0FF015
:10099C00B6EC10F046EF03F0B6EC10F0000E506E13
:1009AC00000E4F6EE3EF04F04F50600FD96EDA6A11
:1009BC00DF50C7EC0FF04F4A502A4F50600FD96EE2
:1009CC00DA6ADF50D8A4EDEF04F0EFEF04F0DAEFC1
:1009DC0004F0C8EF04F0B6EC10F0000E506E000EF0
:1009EC004F6E02EF05F04F50600FD96EDA6ADF5090
:1009FC00C7EC0FF04F4A502A4F50600FD96EDA6A8D
:100A0C00DF50D8A40CEF05F00EEF05F0F9EF04F071
:100A1C00C8EF04F0B6EC10F0040E08EC10F0386ED1
:100A2C00050E08EC10F0396E060E08EC10F03A6E5C
:100A3C00070E08EC10F03B6E590E116E010E126E83
:100A4C0038C013F0146A39C015F0166A3AC017F0A2
:100A5C00186A3BC019F01A6A25EC10F0310E536E6F
:100A6C008AEC08F046EF03F0B6EC10F0040E08EC3C
:100A7C0010F0386E050E08EC10F0396E060E08EC0E
:100A8C0010F03A6E070E08EC10F03B6E590E116E1A
:100A9C00010E126E38C013F0146A39C015F0166AC4
:100AAC003AC017F0186A3BC019F01A6A25EC10F01E
:100ABC00320E536E10EC09F046EF03F05450310A2D
:100ACC00D8B408EF04F0030AD8B410EF05F0010A0B
:100ADC00D8B43AEF05F046EF03F012000E6E440E58
:100AEC00086E096A590E0A6E41EC0DF008C013F03D
:100AFC0009C014F013501410D8B487EF05F089EF27
:100B0C0005F03CEF06F0000E4E6E000E4D6E31EF10
:100B1C0006F013501410D8B496EF05F098EF05F0CA
:100B2C00C2EF05F0010EA5EC0FF0000E506E000E9A
:100B3C004F6EACEF05F04F50AB0FD96EDA6ADF5049
:100B4C00C7EC0FF0F5EC10F04F4A502A4F50AB0F9A
:100B5C00D96EDA6ADF50D8A4B6EF05F0B8EF05F01D
:100B6C00A1EF05F04E0E026E200E016E06EC0FF09A
:100B7C00F1EC10F0E6EF06F0010EA5EC0FF0000E14
:100B8C00506E000E4F6ED6EF05F04F50BA0FD96E67
:100B9C00DA6ADF50C7EC0FF0F1EC10F04F4A502A34
:100BAC004F50BA0FD96EDA6ADF50D8A4E0EF05F0D7
:100BBC00E2EF05F0CBEF05F0E6EF06F01350141062
:100BCC00D8B4EBEF05F0EDEF05F00FEF06F0010EEA
:100BDC00A5EC0FF0000E506E000E4F6E01EF06F0FC
:100BEC004F50AB0FD96EDA6ADF50C7EC0FF0EDEC5B
:100BFC0010F04F4A502A4F50AB0FD96EDA6ADF50C3
:100C0C00D8A40BEF06F00DEF06F0F6EF05F0B8EFF9
:100C1C0005F0010EA5EC0FF0000E506E000E4F6E9D
:100C2C0023EF06F04F50BA0FD96EDA6ADF50C7ECDB
:100C3C000FF0F1EC10F04F4A502A4F50BA0FD96E0A
:100C4C00DA6ADF50D8A42DEF06F02FEF06F018EF7C
:100C5C0006F0E6EF06F00E50310AD8B48FEF05F02F
:100C6C00030AD8B4E4EF05F0E6EF06F04D4A4E2A3D
:100C7C00B6EC10F0000E506E000E4F6E4FEF06F0FB
:100C8C004F50BA0FD96EDA6ADF50C7EC0FF04F4AEB
:100C9C00502A4F50BA0FD96EDA6ADF50D8A459EFE8
:100CAC0006F05BEF06F046EF06F013501410D8A4D4
:100CBC0062EF06F064EF06F0E6EF06F0030E4D1857
:100CCC004E10D8A46CEF06F06EEF06F0E6EF06F0CF
:100CDC00B6EC10F0000E506E000E4F6E7FEF06F06B
:100CEC004F50280FD96EDA6ADF50C7EC0FF04F4A1D
:100CFC00502A4F50280FD96EDA6ADF50D8A489EFEA
:100D0C0006F08BEF06F076EF06F0C00EA5EC0FF0B8
:100D1C00000E506E000E4F6E9DEF06F04F50ED0F13
:100D2C00D96EDA6ADF50C7EC0FF04F4A502A4F5099
:100D3C00ED0FD96EDA6ADF50D8A4A7EF06F0A9EF51
:100D4C0006F094EF06F0000E106E000E0F6E000E03
:100D5C00126E000E116ECA0EA5EC0FF0000E026E94
:100D6C00C80E016E06EC0FF00F50300FC7EC0FF0F1
:100D7C001150300FC7EC0FF0070E026ED00E016E43
:100D8C0006EC0FF0114A122A125009E10A0E115CFE
:100D9C00D8A0D3EF06F0D5EF06F0B1EF06F00F4A6E
:100DAC00102A105009E1030E0F5CD8A0E0EF06F0FA
:100DBC00E2EF06F0ADEF06F0000E4E6E000E4D6E3B
:100DCC001200000E506E000E4F6EF6EF06F04F50F4
:100DDC006F0FD96EDA6ADF50C7EC0FF04F4A502A0A
:100DEC004F506F0FD96EDA6ADF50D8A400EF07F0BE
:100DFC0002EF07F0EDEF06F0C00EA5EC0FF0000EC1
:100E0C00506E000E4F6E50BE15EF07F0505009E1BA
:100E1C00040E4F5CD8A015EF07F017EF07F019EF91
:100E2C0007F061EF07F0819681948192819081A8FF
:100E3C0022EF07F024EF07F039EF07F081AA29EF32
:100E4C0007F02BEF07F039EF07F081AC30EF07F02C
:100E5C0032EF07F039EF07F081BE37EF07F039EFCB
:100E6C0007F01DEF07F081B83EEF07F040EF07F0F9
:100E7C0042EF07F012EC0CF081BA47EF07F049EFA4
:100E8C0007F04BEF07F0A9EC0BF081BC50EF07F02B
:100E9C0052EF07F054EF07F040EC0BF081BE59EF26
:100EAC0007F05BEF07F05DEF07F0D7EC0AF04F4A65
:100EBC00502A09EF07F038C001F0040E81EC0FF056
:100ECC0039C001F0050E81EC0FF03AC001F0060EAE
:100EDC0081EC0FF03BC001F0070E81EC0FF012001B
:100EEC00000E506E000E4F6E85EF07F04F507E0FC8
:100EFC00D96EDA6ADF50C7EC0FF04F4A502A4F50C8
:100F0C007E0FD96EDA6ADF50D8A48FEF07F091EF1D
:100F1C0007F07CEF07F0C00EA5EC0FF0000E506E42
:100F2C00000E4F6E50BEA4EF07F0505009E1040EB6
:100F3C004F5CD8A0A4EF07F0A6EF07F0A8EF07F0DE
:100F4C00F0EF07F0819681948192819081A8B1EFA6
:100F5C0007F0B3EF07F0C8EF07F081AAB8EF07F07E
:100F6C00BAEF07F0C8EF07F081ACBFEF07F0C1EFA5
:100F7C0007F0C8EF07F081BEC6EF07F0C8EF07F027
:100F8C00ACEF07F081B8CDEF07F0CFEF07F0D1EF62
:100F9C0007F06CEC0AF081BAD6EF07F0D8EF07F047
:100FAC00DAEF07F001EC0AF081BCDFEF07F0E1EFBC
:100FBC0007F0E3EF07F096EC09F081BEE8EF07F0DD
:100FCC00EAEF07F0ECEF07F07BEC0CF04F4A502AFD
:100FDC0098EF07F0440E086E096A590E0A6E41EC40
:100FEC000DF008C010F009C011F010C00EF011C0C7
:100FFC000FF01200000E506E000E4F6E0FEF08F047
:10100C004F509C0FD96EDA6ADF50C7EC0FF04F4A85
:10101C00502A4F509C0FD96EDA6ADF50D8A419EFC2
:10102C0008F01BEF08F006EF08F0C00EA5EC0FF06F
:10103C00000E506E000E4F6E50BE2EEF08F050504A
:10104C0009E1040E4F5CD8A02EEF08F030EF08F049
:10105C0032EF08F07AEF08F08196819481928190BA
:10106C0081A83BEF08F03DEF08F052EF08F081AAA1
:10107C0042EF08F044EF08F052EF08F081AC49EF72
:10108C0008F04BEF08F052EF08F081BE50EF08F07B
:10109C0052EF08F036EF08F081B857EF08F059EF2F
:1010AC0008F05BEF08F06CEC0AF081BA60EF08F026
:1010BC0062EF08F064EF08F001EC0AF081BC69EF14
:1010CC0008F06BEF08F06DEF08F096EC09F081BEBC
:1010DC0072EF08F074EF08F076EF08F07BEC0CF090
:1010EC004F4A502A22EF08F0440E086E096A0EC0CF
:1010FC000AF041EC0DF008C010F009C011F010C05E
:10110C000EF011C00FF01200000E506E000E4F6E5C
:10111C0099EF08F04F508D0FD96EDA6ADF50C7EC9B
:10112C000FF04F4A502A4F508D0FD96EDA6ADF50AC
:10113C00D8A4A3EF08F0A5EF08F090EF08F0C00ECC
:10114C00A5EC0FF0000E506E000E4F6E50BEB8EFB7
:10115C0008F0505009E1040E4F5CD8A0B8EF08F02D
:10116C00BAEF08F0BCEF08F004EF09F08196819417
:10117C008192819081A8C5EF08F0C7EF08F0DCEFF1
:10118C0008F081AACCEF08F0CEEF08F0DCEF08F005
:10119C0081ACD3EF08F0D5EF08F0DCEF08F081BE9E
:1011AC00DAEF08F0DCEF08F0C0EF08F081B8E1EFFF
:1011BC0008F0E3EF08F0E5EF08F06CEC0AF081BA08
:1011CC00EAEF08F0ECEF08F0EEEF08F001EC0AF0B3
:1011DC0081BCF3EF08F0F5EF08F0F7EF08F096ECB0
:1011EC0009F081BEFCEF08F0FEEF08F000EF09F00B
:1011FC007BEC0CF04F4A502AACEF08F0535074ECD7
:10120C0005F0070E026ED00E016E06EC0FF0B6EC78
:10121C0010F01200000E506E000E4F6E1FEF09F012
:10122C004F508D0FD96EDA6ADF50C7EC0FF04F4A72
:10123C00502A4F508D0FD96EDA6ADF50D8A429EF9F
:10124C0009F02BEF09F016EF09F0C00EA5EC0FF02A
:10125C00000E506E000E4F6E50BE3EEF09F0505017
:10126C0009E1040E4F5CD8A03EEF09F040EF09F005
:10127C0042EF09F08AEF09F0819681948192819076
:10128C0081A84BEF09F04DEF09F062EF09F081AA4C
:10129C0052EF09F054EF09F062EF09F081AC59EF0D
:1012AC0009F05BEF09F062EF09F081BE60EF09F025
:1012BC0062EF09F046EF09F081B867EF09F069EFCA
:1012CC0009F06BEF09F06CEC0AF081BA70EF09F0E1
:1012DC0072EF09F074EF09F001EC0AF081BC79EFC0
:1012EC0009F07BEF09F07DEF09F096EC09F081BE77
:1012FC0082EF09F084EF09F086EF09F07BEC0CF03B
:10130C004F4A502A32EF09F0535074EC05F0070E97
:10131C00026ED00E016E06EC0FF0B6EC10F012005F
:10132C008186818481828180819081BCA0EF09F0CB
:10133C00A2EF09F0B4EF09F081ACA7EF09F0A9EF27
:10134C0009F0A2EF09F02A0EC7EC0FF04F50440F32
:10135C00D96EDA6A330EDF6E330E546E8180819251
:10136C0081BCBBEF09F0BDEF09F0CDEF09F081AC0A
:10137C00C2EF09F0C4EF09F0BDEF09F02A0EC7EC7B
:10138C000FF04F50440FD96EDA6A360EDF6E818241
:10139C00819481BCD4EF09F0D6EF09F0E6EF09F0A7
:1013AC0081ACDBEF09F0DDEF09F0D6EF09F02A0E86
:1013BC00C7EC0FF04F50440FD96EDA6A390EDF6E5E
:1013CC008184819681BCEDEF09F0EFEF09F0FFEF1E
:1013DC0009F081ACF4EF09F0F6EF09F0EFEF09F04A
:1013EC002A0EC7EC0FF04F50440FD96EDA6A230E59
:1013FC00DF6E81861200818681848182818081905A
:10140C0081BA0BEF0AF00DEF0AF01FEF0AF081AA78
:10141C0012EF0AF014EF0AF00DEF0AF02A0EC7ECE7
:10142C000FF04F50440FD96EDA6A320EDF6E320E67
:10143C00546E8180819281BA26EF0AF028EF0AF06F
:10144C0038EF0AF081AA2DEF0AF02FEF0AF028EFFF
:10145C000AF02A0EC7EC0FF04F50440FD96EDA6A1F
:10146C00350EDF6E8182819481BA3FEF0AF041EF35
:10147C000AF051EF0AF081AA46EF0AF048EF0AF0A1
:10148C0041EF0AF02A0EC7EC0FF04F50440FD96E03
:10149C00DA6A380EDF6E8184819681BA58EF0AF0D1
:1014AC005AEF0AF06AEF0AF081AA5FEF0AF061EFD7
:1014BC000AF05AEF0AF02A0EC7EC0FF04F50440F07
:1014CC00D96EDA6A300EDF6E8186120081868184D5
:1014DC0081828180819081B876EF0AF078EF0AF0F2
:1014EC008AEF0AF081A87DEF0AF07FEF0AF078EF1F
:1014FC000AF02A0EC7EC0FF04F50440FD96EDA6A7F
:10150C00310EDF6E310E546E8180819281B891EF75
:10151C000AF093EF0AF0A3EF0AF081A898EF0AF013
:10152C009AEF0AF093EF0AF02A0EC7EC0FF04F5027
:10153C00440FD96EDA6A340EDF6E8182819481B8E1
:10154C00AAEF0AF0ACEF0AF0BCEF0AF081A8B1EFF9
:10155C000AF0B3EF0AF0ACEF0AF02A0EC7EC0FF06A
:10156C004F50440FD96EDA6A370EDF6E8184819644
:10157C0081B8C3EF0AF0C5EF0AF0D5EF0AF081A8E5
:10158C00CAEF0AF0CCEF0AF0C5EF0AF02A0EC7EC4E
:10159C000FF04F50440FD96EDA6A2A0EDF6E818637
:1015AC0012008186818481828180819081BEE1EFED
:1015BC000AF0E3EF0AF0F3EF0AF081AEE8EF0AF07D
:1015CC00EAEF0AF0E3EF0AF02A0EC7EC0FF04F50E7
:1015DC00380FD96EDA6A410EDF6E8180819281BE3E
:1015EC00FAEF0AF0FCEF0AF00CEF0BF081AE01EF12
:1015FC000BF003EF0BF0FCEF0AF02A0EC7EC0FF028
:10160C004F50380FD96EDA6A420EDF6E81828194A8
:10161C0081BE13EF0BF015EF0BF025EF0BF081AE45
:10162C001AEF0BF01CEF0BF015EF0BF02A0EC7ECBA
:10163C000FF04F50380FD96EDA6A430EDF6E81848B
:10164C00819681BE2CEF0BF02EEF0BF03EEF0BF0E2
:10165C0081AE33EF0BF035EF0BF02EEF0BF02A0EC3
:10166C00C7EC0FF04F50380FD96EDA6A440EDF6EAC
:10167C00818612008186818481828180819081BCE7
:10168C004AEF0BF04CEF0BF05CEF0BF081AC51EF31
:10169C000BF053EF0BF04CEF0BF02A0EC7EC0FF0E6
:1016AC004F50380FD96EDA6A330EDF6E818081921B
:1016BC0081BC63EF0BF065EF0BF075EF0BF081ACB9
:1016CC006AEF0BF06CEF0BF065EF0BF02A0EC7EC2A
:1016DC000FF04F50380FD96EDA6A360EDF6E8182FA
:1016EC00819481BC7CEF0BF07EEF0BF08EEF0BF056
:1016FC0081AC83EF0BF085EF0BF07EEF0BF02A0E35
:10170C00C7EC0FF04F50380FD96EDA6A390EDF6E16
:10171C008184819681BC95EF0BF097EF0BF0A7EFCE
:10172C000BF081AC9CEF0BF09EEF0BF097EF0BF0F6
:10173C002A0EC7EC0FF04F50380FD96EDA6A230E11
:10174C00DF6E818612008186818481828180819006
:10175C0081BAB3EF0BF0B5EF0BF0C5EF0BF081AA2C
:10176C00BAEF0BF0BCEF0BF0B5EF0BF02A0EC7EC99
:10177C000FF04F50380FD96EDA6A320EDF6E81805F
:10178C00819281BACCEF0BF0CEEF0BF0DEEF0BF0C9
:10179C0081AAD3EF0BF0D5EF0BF0CEEF0BF02A0EA6
:1017AC00C7EC0FF04F50380FD96EDA6A350EDF6E7A
:1017BC008182819481BAE5EF0BF0E7EF0BF0F7EF44
:1017CC000BF081AAECEF0BF0EEEF0BF0E7EF0BF068
:1017DC002A0EC7EC0FF04F50380FD96EDA6A380E5C
:1017EC00DF6E8184819681BAFEEF0BF000EF0CF076
:1017FC0010EF0CF081AA05EF0CF007EF0CF000EFE6
:10180C000CF02A0EC7EC0FF04F50380FD96EDA6A75
:10181C00300EDF6E81861200818681848182818008
:10182C00819081B81CEF0CF01EEF0CF02EEF0CF039
:10183C0081A823EF0CF025EF0CF01EEF0CF02A0E14
:10184C00C7EC0FF04F50380FD96EDA6A310EDF6EDD
:10185C008180819281B835EF0CF037EF0CF047EFB7
:10186C000CF081A83CEF0CF03EEF0CF037EF0CF0D5
:10187C002A0EC7EC0FF04F50380FD96EDA6A340EBF
:10188C00DF6E8182819481B84EEF0CF050EF0CF03A
:10189C0060EF0CF081A855EF0CF057EF0CF050EF07
:1018AC000CF02A0EC7EC0FF04F50380FD96EDA6AD5
:1018BC00370EDF6E8184819681B867EF0CF069EF8B
:1018CC000CF079EF0CF081A86EEF0CF070EF0CF0CF
:1018DC0069EF0CF02A0EC7EC0FF04F50380FD96E91
:1018EC00DA6A2A0EDF6E81861200818681848182FB
:1018FC008180819081BE85EF0CF087EF0CF097EF23
:10190C000CF081AE8CEF0CF08EEF0CF087EF0CF03E
:10191C002A0EC7EC0FF04F50440FD96EDA6A410E05
:10192C00DF6E8180819281BE9EEF0CF0A0EF0CF0F7
:10193C00B0EF0CF081AEA5EF0CF0A7EF0CF0A0EF20
:10194C000CF02A0EC7EC0FF04F50440FD96EDA6A28
:10195C00420EDF6E8182819481BEB7EF0CF0B9EF3D
:10196C000CF0C9EF0CF081AEBEEF0CF0C0EF0CF038
:10197C00B9EF0CF02A0EC7EC0FF04F50440FD96E94
:10198C00DA6A430EDF6E8184819681BED0EF0CF053
:10199C00D2EF0CF0E2EF0CF081AED7EF0CF0D9EFF8
:1019AC000CF0D2EF0CF02A0EC7EC0FF04F50440F96
:1019BC00D96EDA6A440EDF6E818612000A50D96E37
:1019CC00DA6ADFCFF6FF060EF76E0800F550250A2F
:1019DC00D8A4F3EF0CF0F5EF0CF02FEF0DF00A504C
:1019EC00D96EDA6ADF2A000E4A6E000E496E49C0C3
:1019FC0051F04B684C680A50D96EDA6ADFCFF6FFAB
:101A0C00060EF76E0800F550630AD8A410EF0DF01F
:101A1C0012EF0DF029EF0DF00A50D96EDA6ADF2AB9
:101A2C000B50D96EDA6ADF50DF2ADF2AD96EDA6AF8
:101A3C00DF500C6E0CC001F0026A09C003F0F7EC29
:101A4C000DF040EF0DF00A50D96EDA6ADF2A40EF44
:101A5C000DF00A50D96EDA6ADFCFF6FF060EF76E7C
:101A6C000800F550016E026A09C003F0F7EC0DF0A6
:101A7C0029EF0DF012000A50D8B447EF0DF049EFE2
:101A8C000DF097EF0DF00AC001F03FEC10F001C023
:101A9C000CF002C00DF082EF0DF008C001F009C08F
:101AAC0002F00AC003F00CC004F00DC005F09CEC71
:101ABC000DF001500210D8A466EF0DF068EF0DF098
:101ACC006EEF0DF008C008F009C009F09BEF0DF0A7
:101ADC00010E0824016E000E0920026E0A50D96E08
:101AEC00DA6ADF500B6E0B50036E046A5BEC0FF07E
:101AFC0001C008F002C009F008500910D8B489EFF1
:101B0C000DF08BEF0DF097EF0DF008C0D9FF09C069
:101B1C00DAFFDF50D8A495EF0DF097EF0DF053EFEF
:101B2C000DF0000E086E000E096E12000406D8A00F
:101B3C000506042806E10528D8A4A7EF0DF0A9EFA7
:101B4C000DF0B5EF0DF0000E026E000E016EF6EF0B
:101B5C000DF0014A022A032A0406D8A0050601C08A
:101B6C00D9FF02C0DAFFDF50D8B4BFEF0DF0C1EFE0
:101B7C000DF0E5EF0DF00350D96EDA6ADF50D8B4F2
:101B8C00CAEF0DF0CCEF0DF0E5EF0DF004500510A1
:101B9C00D8B4D3EF0DF0D5EF0DF0E5EF0DF0035009
:101BAC00D96EDA6A01C0E1FF02C0E2FFDE50E6182E
:101BBC00D8B4E3EF0DF0E5EF0DF0AFEF0DF001C091
:101BCC00D9FF02C0DAFFDF50066E0350D96EDA6A15
:101BDC00DF50076E0750065C016E026AD8A0020641
:101BEC0012000350D8B4FDEF0DF0FFEF0DF007EF2E
:101BFC000EF00350D8A405EF0EF007EF0EF00CEF2B
:101C0C000EF00150FCEC10F04BEF0EF00350D96EBF
:101C1C00DA6A0A0ED926DE50DE10D8B418EF0EF0B0
:101C2C001AEF0EF033EF0EF00350D96EDA6A0A0E8B
:101C3C00D9260350E16EE26A030EE126DE50E65C23
:101C4C00E650800A086EDE50800A0858D8B031EF92
:101C5C000EF033EF0EF04BEF0EF00350D96EDA6A44
:101C6C00030ED926DF50046E0350D96EDA6ADF50AA
:101C7C000424D96EDA6A01C0DFFF0350D96EDA6A28
:101C8C00030ED926DE2A000EDD22120057726F6E6B
:101C9C00672050617373776F726400456E74657260
:101CAC00206E6577205061737300456E74657220E9
:101CBC006F6C64205061737300456E7465722050B4
:101CCC00617373776F72640041646D696E2050614B
:101CDC007373776F7264004163636573732047722B
:101CEC00616E746564004163636573732044656E53
:101CFC00696564004E65772070617373776F7264E9
:101D0C0000312E41646D696E205573657200322E60
:101D1C00756E6C6F636B2020003330207365636FBE
:101D2C006E643A004B0EF66E210EF76E000EF86ED6
:101D3C0001EE20F010EE20F00900F5CFEEFFE5509B
:101D4C00E150FAE1980EF66E1C0EF76E000EF86E6E
:101D5C0000EE60F010EE98F00900F5CFEEFFE550C4
:101D6C00E150FAE12A0EF66E210EF76E000EF86EB7
:101D7C0000EE28F010EE21F00900F5CFEEFFE55053
:101D8C00E150FAE101EE00F0200EEE6AE806FDE10A
:101D9C0000EE49F0140EEE6AE806FDE1000EF86E56
:101DAC000001E7EF10F001C003F002C004F004BE24
:101DBC00E9EF0EF0590E035C010E0458D8A0E9EFC0
:101DCC000EF0EBEF0EF0EDEF0EF005EF0FF0000E56
:101DDC00066E000E056E054A062A06BEFFEF0EF0D3
:101DEC00065009E10C0E055CD8A0FFEF0EF001EFD8
:101DFC000FF0F1EF0EF0034A042ADDEF0EF01200A3
:101E0C00000E076E000E066E000E056E000E046EC0
:101E1C0012EF0FF0044A052A0150045C0550800AA9
:101E2C00036E0250800A0358D8A01FEF0FF021EF69
:101E3C000FF010EF0FF0064A072A07BE2FEF0FF036
:101E4C00075009E1640E065CD8A02FEF0FF031EFBC
:101E5C000FF00AEF0FF01200000E026E000E016E72
:101E6C00000E046E000E036E034A042A04BE48EFF3
:101E7C000FF0045009E1320E035CD8A048EF0FF0CC
:101E8C004AEF0FF03AEF0FF0014A022A02BE58EF68
:101E9C000FF0025009E1640E015CD8A058EF0FF06E
:101EAC005AEF0FF036EF0FF0120001C0D9FF02C04D
:101EBC00DAFF0350DE18D8A466EF0FF068EF0FF0CE
:101ECC006EEF0FF001C001F002C002F080EF0FF0D6
:101EDC0001C0D9FF02C0DAFF014A022ADF50D8A4A0
:101EEC007AEF0FF07CEF0FF05BEF0FF0000E016E4E
:101EFC00000E026E1200026EA6B287EF0FF089EF91
:101F0C000FF082EF0FF0A6B08EEF0FF090EF0FF006
:101F1C0082EF0FF002C0A9FF01C0A8FFA69EA69CED
:101F2C00A684550EA76EAA0EA76EA682A6B2A1EF26
:101F3C000FF0A3EF0FF09CEF0FF0A6941200056EBC
:101F4C000538F00BF00B066E0550F00B076E4E0EBD
:101F5C0056EC10F007500C0984EC10F032EC0FF03A
:101F6C000750080984EC10F006500C0984EC10F0B2
:101F7C0032EC0FF00650080984EC10F0C6EC10F0AF
:101F8C001200056E0538F00BF00B066E0550F00BC9
:101F9C00076E4E0E56EC10F007500D0984EC10F045
:101FAC0032EC0FF00750090984EC10F006500D09C3
:101FBC0084EC10F032EC0FF00650090984EC10F0B0
:101FCC00C6EC10F012000EC010F0F5EF0FF00DC0C3
:101FDC0009F0100E0A6E0FC00BF0E4EC0CF010C000
:101FEC00F6FF060EF76E0800F5500009D8A401EFB5
:101FFC0010F003EF10F0EDEF0FF0000E0E6E000E70
:10200C000D6E1200016EA6B20EEF10F010EF10F074
:10201C0009EF10F0A6B015EF10F017EF10F009EF64
:10202C0010F001C0A9FFA69EA69CA680A6B021EF29
:10203C0010F023EF10F01CEF10F0A8501200130E4C
:10204C001B6E11C01CF0000E206E000E1F6E000ED9
:10205C00276E000E266E1C0E0D6E12C00EF01B0E9F
:10206C000F6EE9EC0FF011501F24D96EDA6ADF6A9B
:10207C00120001C003F044EF10F0012A0150D96E98
:10208C00DA6ADF50D8A44DEF10F04FEF10F043EFA9
:10209C0010F00350015C016E026A01BE02061200D0
:1020AC00026EC580C5B05DEF10F05FEF10F058EF19
:1020BC0010F09E96C7B665EF10F067EF10F069EF61
:1020CC0010F06CEF10F0025084EC10F01200A1B67E
:1020DC0072EF10F074EF10F06DEF10F0C7B079EFF5
:1020EC0010F07BEF10F074EF10F0C7B480EF10F02D
:1020FC0082EF10F074EF10F09E961200016E01C08A
:10210C00C9FF6DEC10F0C5AC8EEF10F090EF10F035
:10211C0093EF10F0010E94EF10F0000E12005761C7
:10212C00697420666F7200332E6C6F636B003536EA
:10213C00373835363738313233343030303000536D
:10214C006574205375636365737366756C6C790085
:0F215C0070617373776F7264206D6174636800D4
:10216C00020EA5EC0FF00E0EA5EC0FF0010EA5EC77
:10217C000FF0280EA5EC0FF0800EA5EC0FF012005E
:10218C006DEC10F0C584C5B4CEEF10F0D0EF10F0AC
:10219C00C9EF10F09E96C7501200800EC76E280E25
:1021AC00C66E000EC56E310EC86E9E9612000F0ED6
:1021BC00C16E000E956EF00E936EFE0E926EF19E39
:1021CC001200F9EC10F006EC03F000EF00F0839C29
:1021DC00838E80801200839C839E80901200838C5F
:0E21EC00839E80801200DDEC10F012001200C5
:00000001FF
